:100000000C943C010C946D010C946D010C946D01E9
:100010000C946D010C946D010C946D010C946D01A8
:100020000C946D010C946D010C946D010C946D0198
:100030000C946D010C946D010C946D010C946D0188
:100040000C946D010C9453080C946D010C946D018B
:100050000C946D010C946D010C946D010C947F0750
:100060000C946D010C9449070C941F070C946D01BE
:100070000C946D010C946D010C946D010C946D0148
:100080000C9425080C946D010C946D010C946D0179
:100090000C946D010C946D010C946D010C946D0128
:1000A0000C946D010C946D010C94F7070C946D0188
:1000B0000C946D010C946D010C946D010C94C907A6
:1000C0000C946D010C946D010C946D010C946D01F8
:1000D0000C946D010C946D010C946D010C946D01E8
:1000E0000C946D010C9481080C94CE020C94D005F4
:1000F0000C941B030C94A1030C9434020C94B703CE
:100100000C94E8030C94F2030C9496020C94F605FC
:100110000C94A6050C94C2030C94B8050C94CC0363
:100120000C949C030C9488020C94EE030C94D6035C
:100130000C94DA030C94D2050C94E0030C94D805CB
:100140000C948E050C94E4030C94BF030C94B3033D
:100150000C9498050C9425020C94E2050C94F0057F
:100160000C94F8010C94BB030C94C8030C94D203B8
:1001700000000A0B02090C0D0E0807030401000021
:10018000000000000000000000000000000000006F
:10019000000000000000000000000000121110002C
:1001A000000000000000000000000000000000004F
:1001B00000000000000000002200250028002B00A5
:1001C0002E003100340002010000050108010B017E
:1001D00000002100240027002A002D0030003300F9
:1001E00001010000040107010A01050505050705D5
:1001F00008080808020202020A0A080804040404A3
:1002000001010101010101010303030303030303CE
:10021000040707070C0C0C0C0C0C0C0C020202025D
:1002200006060606060606060B0B0B0B0B0B0B0B46
:1002300001021020200808102040102040800201F8
:1002400002010804020101020408102040808040DD
:1002500020100804020180040201804020100804DC
:10026000020108040201010204081020408001027A
:10027000040810204080810811241FBECFEFD1E276
:10028000DEBFCDBF00E00CBF12E0A0E0B2E0E8E3CB
:10029000FDE100E00BBF02C007900D92A032B10754
:1002A000D9F723E0A0E2B2E001C01D92A639B2075F
:1002B000E1F711E0CCE3D1E000E006C021970109AD
:1002C000802FFE010E94680CCB33D10780E0080725
:1002D000A9F70E946E090C949A0E0C94000090E00D
:1002E000FC01E05DFD4F249186519E4FFC018491FD
:1002F000882399F090E0880F991FFC01E053FE4F8E
:10030000A591B491FC01EA54FE4F859194918FB769
:10031000F894EC91E22BEC938FBF08958F929F920B
:10032000AF92BF92FF920F931F93CF93DF938F3FB4
:10033000980711F490E080E0F0905B032FE22F1516
:1003400008F44CC020915D0308E512E0021B11097E
:1003500027FD1395000F111F000F111F20915C0343
:10036000C8E8D0E0C21BD10927FDD395CC0FDD1F13
:10037000CC0FDD1F4E010D2E000CAA08BB08980102
:10038000012E000C440B550B281939094A095B0949
:10039000DC010E940F0C24EB30E040E050E00E94B2
:1003A000E50B820E931EA41EB51E8C169D062CF026
:1003B000E801801691060CF4E4012297CC0FDD1FB2
:1003C0002FB7F8948F2D90E0FC01EE0FFF1FE80F80
:1003D000F91FE653FD4FD283C1832FBFDF91CF9129
:1003E0001F910F91FF90BF90AF909F908F900895B5
:1003F000AF92BF92CF92DF92EF92FF920F931F9333
:10040000CF93DF936C017B018B01040F151FEB0170
:100410005E01AE18BF08C017D10759F06991D60127
:10042000ED91FC910190F081E02DC6011995892B89
:1004300079F7C501DF91CF911F910F91FF90EF9058
:10044000DF90CF90BF90AF900895FC01538D448D05
:10045000252F30E0842F90E0821B930B541710F06F
:10046000CF96089501970895FC01918D828D98177C
:1004700061F0A28DAE0FBF2FB11D5D968C91928D54
:100480009F5F9F73928F90E008958FEF9FEF089585
:100490002FB7F8948091290290912A02A0912B0203
:1004A000B0912C022FBF8093350290933602A09317
:1004B0003702B09338028DE292E00E94340297FF37
:1004C00026C02FB7F8948091290290912A02A0911A
:1004D0002B02B0912C022FBF409135025091360271
:1004E0006091370270913802841B950BA60BB70BF5
:1004F0004091310250913202609133027091340286
:1005000084179507A607B707B0F28FEF9FEF0895FE
:10051000FC01918D828D981731F0828DE80FF11DCD
:10052000858D90E008958FEF9FEF0895FC01918DE8
:10053000228D892F90E0805C9F4F821B91098F73E1
:10054000992708958DE292E00E94960221E0892B7E
:1005500009F420E0822F0895FC01A48DA80FB92F83
:10056000B11DA35ABF4F2C91848D90E001968F73DB
:100570009927848FA689B7892C93A089B1898C91FA
:10058000837080648C93938D848D981306C0028849
:10059000F389E02D80818F7D80830895EF92FF9213
:1005A0000F931F93CF93DF93EC0181E0888F9B8D96
:1005B0008C8D98131AC0E889F989808185FF15C050
:1005C0009FB7F894EE89FF896083E889F989808173
:1005D0008370806480839FBF81E090E0DF91CF9142
:1005E0001F910F91FF90EF900895F62E0B8D10E064
:1005F0000F5F1F4F0F731127E02E8C8D8E110CC0D3
:100600000FB607FCFACFE889F989808185FFF5CF1D
:10061000CE010E94AC02F1CFEB8DEC0FFD2FF11D4E
:10062000E35AFF4FF0829FB7F8940B8FEA89FB895A
:1006300080818062CFCFCF93DF93EC01888D8823B8
:10064000B9F0AA89BB89E889F9898C9185FD03C035
:10065000808186FD0DC00FB607FCF7CF8C9185FF1A
:10066000F2CF808185FFEDCFCE010E94AC02E9CFB1
:10067000DF91CF91089580E090E0892B29F00E94CE
:10068000A20281110E94000080E090E0892B49F0D5
:1006900080E090E0892B29F00E94000081110E94E7
:1006A000000080E090E0892B49F080E090E0892B09
:1006B00029F00E94000081110E94000080E090E07B
:1006C000892B49F080E090E0892B29F00E940000FE
:1006D00081110C9400000895282F30E0F901E059B1
:1006E000FE4F9491F901E05DFD4F449126513E4F3C
:1006F000F9012491222309F435C0992311F1915075
:100700009231F8F4E92FF0E08827E657FC4F8F4F3D
:100710000C94680CBB03BF039C03B303B703A10392
:10072000C203C803CC03D203D603DA03E003E40315
:10073000A103E803EE03F203809180008F7780939A
:100740008000E22FF0E0EE0FFF1FEA54FE4FA5916C
:10075000B4918FB7F894EC91611148C040954E2345
:100760004C938FBF0895809180008F7DE8CF80915A
:100770008000877FE4CF84B58F7784BDE2CF84B5D6
:100780008F7DFBCF8091B0008F778093B000D9CF61
:100790008091B0008F7DF9CF809190008F7780930A
:1007A0009000CFCF809190008F7DF9CF8091900005
:1007B000877FF5CF8091A0008F778093A000C1CF75
:1007C0008091A0008F7DF9CF8091A000877FF5CF29
:1007D000809120018F7780932001B3CF80912001F9
:1007E0008F7DF9CF80912001877FF5CF4E2BB8CF39
:1007F0003FB7F8948091250290912602A09127029C
:10080000B091280226B5A89B05C02F3F19F001968C
:10081000A11DB11D3FBFBA2FA92F982F8827BC015A
:10082000CD01620F711D811D911D42E0660F771F82
:10083000881F991F4A95D1F708958F929F92AF9282
:10084000BF92CF92DF92EF92FF924B015C010E9428
:10085000F8036B017C010E94F8036C197D098E0975
:100860009F09683E734081059105A8F321E0821A33
:100870009108A108B10888EEC80E83E0D81EE11CDB
:10088000F11C81149104A104B10429F7FF90EF90A9
:10089000DF90CF90BF90AF909F908F900895AF92D0
:1008A000BF92CF92DF92EF92FF920F931F93CF935D
:1008B000DF936B017A01EC01C05EDD4F28813CE0E3
:1008C000389F8001399F100D1124A0905A03B12C3C
:1008D00027FF1FC0FB011182108288818F5F8883F0
:1008E00088819801280F311D87FD3A95F6012A1558
:1008F0003B051CF488818C30C4F180819181049681
:1009000080349C4908F473C0F6018081918104967B
:1009100070C088819801280F311D87FD3A952A15EE
:100920003B05DCF68881A801480F511D87FD5A95CB
:10093000FA01EE0FFF1FE40FF51FE653FD4F808114
:1009400086FFCBCF8881F801E80FF11D87FDFA956E
:10095000CF01EE0FFF1FE80FF91FE653FD4F808117
:1009600060E08F730E946C03B8CF808191812881F1
:10097000A801420F511D27FD5A959A01FA01EE0F69
:10098000FF1FE20FF31FE653FD4F21813281820FDB
:10099000931FF7019183808388819801280F311D6F
:1009A00087FD3A95F901EE0FFF1FE20FF31FE653A3
:1009B000FD4F808186FF22C08881080F111D87FDB1
:1009C0001A95F801EE0FFF1FE00FF11FE653FD4FE0
:1009D000808161E08F73DF91CF911F910F91FF9024
:1009E000EF90DF90CF90BF90AF900C946C0380E4B9
:1009F0009CE9F701918380838FEF8883DF91CF910A
:100A00001F910F91FF90EF90DF90CF90BF90AF902C
:100A100008950F931F93CF93DF93EC018B0188858B
:100A20009985029751F46130710509F43AC06CF56B
:100A300060E00115110509F435C088859985049792
:100A400051F40130110509F455C00CF035C0011501
:100A5000110509F43EC088859985059709F0C8C03D
:100A60000A30110508F0C4C0F8018827E55CFA4F88
:100A70008F4F0C94680C8E059805A605B805D00517
:100A8000D205D805E205F005F6056230710591F052
:100A900060E00330110589F68C850E946C0360E0EC
:100AA00005C061E08C850E946C0361E08E850E9428
:100AB0006C03C3CF61E0F0CF0230110509F10330C0
:100AC000110509F0C8CF61E08C850E946C0360E0DD
:100AD0001CC061E08C850E946C0360E08E850E94E2
:100AE0006C0361E088890E946C0360E08A890E943F
:100AF0006C03B1CF60E08C850E946C0361E0EECFA7
:100B000060E08C850E946C0361E08E850E946C031E
:100B100060E088890E946C0361E0E8CF60E08C852A
:100B20000E946C0361E08E850E946C0361E009C045
:100B300060E08C850E946C0361E08E850E946C03EE
:100B400060E088890E946C0360E00DC060E08C85E5
:100B50000E946C0361E08E850E946C0360E08889CE
:100B60000E946C0361E08A890E946C0361E011C0FD
:100B700060E08C850E946C0361E08E850E946C03AE
:100B800060E088890E946C0361E08A890E946C039E
:100B900060E08C89DF91CF911F910F910C946C03D1
:100BA00061E0E7CF61E08C850E946C0360E0E5CFF7
:100BB00061E08C850E946C0360E08E850E946C036E
:100BC00061E0DFCF61E08C850E946C0360E08E8580
:100BD0000E946C0361E088890E946C0360E0D5CFBD
:100BE00061E08C850E946C0360E09DCF60E0F9CFEE
:100BF000DF91CF911F910F9108954F925F926F9265
:100C00007F928F929F92AF92BF92CF92DF92EF929C
:100C1000FF920F931F93CF93DF93EC018B0177FF2C
:100C200004C000271127061B170B161617060CF019
:100C30004AC081E090E09983888384E0E82EF12C1B
:100C40009AE0C92ED12C0115110509F44EC00E945D
:100C5000F8038E889F88A88CB98C2B013C0148181A
:100C600059086A087B088A809B80AC80BD80481444
:100C700059046A047B0438F36E8B7F8B888F998FBD
:100C80008A859B85288139812130310511F50196AE
:100C90009B878A872E813F818217930711F41B86D9
:100CA0001A86015011098A859B8528853985B601E8
:100CB0002530310509F0B7010E94540CBC01CE016A
:100CC0000E940905C0CF672B09F4B7CF198218829B
:100CD000B4CF892B21F48E819F819B878A878A8557
:100CE0009B8501979B878A87DCCFDF91CF911F91EE
:100CF0000F91FF90EF90DF90CF90BF90AF909F90BB
:100D00008F907F906F905F904F900895FC0180814D
:100D10009181009711F00C94200D08950F931F936B
:100D2000CF93DF93EC0188819981009759F02A8154
:100D30003B812617370730F081E0DF91CF911F917B
:100D40000F9108958B016F5F7F4F0E94A90D00974F
:100D500059F0998388831B830A832C813D81232B3F
:100D600059F7FC011082E8CF80E0E7CFCF92DF9205
:100D7000EF92FF920F931F93CF93DF931F921F92D7
:100D8000CDB7DEB78C01C62EFC0111821082138212
:100D900012821582148270E060E00E948E06F801D3
:100DA00020813181811137C02115310519F0C90128
:100DB0000E94200DF8011182108215821482138284
:100DC00012820E9448020C2C000CDD0897FD2BC0FB
:100DD0008C159D0541F189831A82F801E480F58024
:100DE000FFEFEF1AFF0AB701C8010E948E068823A1
:100DF00079F0F8012081318184819581BE016F5F96
:100E00007F4F820F931F0E94930EF801F582E482B8
:100E10000E944802DBCF1582148269E172E0C901A9
:100E20000E94930ECECFC8010F900F90DF91CF910B
:100E30001F910F91FF90EF90DF90CF9008951F9238
:100E40000F920FB60F9211240BB60F922F933F9370
:100E50004F935F936F937F938F939F93AF93BF93C2
:100E6000EF93FF938DE292E00E94AC02FF91EF912D
:100E7000BF91AF919F918F917F916F915F914F91B2
:100E80003F912F910F900BBE0F900FBE0F901F90B0
:100E900018951F920F920FB60F9211240BB60F9256
:100EA0002F938F939F93EF93FF93E0913D02F091E7
:100EB0003E028081E0914302F091440282FD1DC018
:100EC0009081809146028F5F8F7320914702821735
:100ED00041F0E0914602F0E0E35DFD4F958F809395
:100EE0004602FF91EF919F918F912F910F900BBE32
:100EF0000F900FBE0F901F9018958081F2CF1F9218
:100F00000F920FB60F9211242F933F938F939F93BD
:100F1000AF93BF938091290290912A02A0912B0256
:100F2000B0912C023091240223E0230F2D3758F585
:100F30000196A11DB11D2093240280932902909354
:100F40002A02A0932B02B0932C028091250290914B
:100F50002602A0912702B09128020196A11DB11D81
:100F60008093250290932602A0932702B093280233
:100F7000BF91AF919F918F913F912F910F900FBE95
:100F80000F901F90189526E8230F0296A11DB11D02
:100F9000D2CF1F920F920FB60F9211240BB60F9261
:100FA0002F933F934F935F936F937F938F939F9371
:100FB000AF93BF93EF93FF9348E251E064E271E097
:100FC00090E080E00E944F04FF91EF91BF91AF91BC
:100FD0009F918F917F916F915F914F913F912F9151
:100FE0000F900BBE0F900FBE0F901F9018951F9281
:100FF0000F920FB60F9211240BB60F922F933F93BF
:101000004F935F936F937F938F939F93AF93BF9310
:10101000EF93FF9348EA50E064EA70E083E090E0E9
:101020000E944F04FF91EF91BF91AF919F918F91DB
:101030007F916F915F914F913F912F910F900BBED8
:101040000F900FBE0F901F9018951F920F920FB622
:101050000F9211240BB60F922F933F934F935F93F0
:101060006F937F938F939F93AF93BF93EF93FF9370
:1010700048E950E064E970E082E090E00E944F04AB
:10108000FF91EF91BF91AF919F918F917F916F9160
:101090005F914F913F912F910F900BBE0F900FBE1C
:1010A0000F901F9018951F920F920FB60F92112458
:1010B0000BB60F922F933F934F935F936F937F9352
:1010C0008F939F93AF93BF93EF93FF9348E850E0C4
:1010D00064E870E081E090E00E944F04FF91EF919E
:1010E000BF91AF919F918F917F916F915F914F9140
:1010F0003F912F910F900BBE0F900FBE0F901F903E
:1011000018950F931F93CF93DF9310923002109294
:101110002F0288EE93E0A0E0B0E08093310290933C
:101120003202A0933302B09334028AE092E09093AB
:101130002E0280932D0285EC90E090933A028093EA
:10114000390284EC90E090933C0280933B0280EC67
:1011500090E090933E0280933D0281EC90E090936A
:10116000400280933F0282EC90E090934202809391
:10117000410286EC90E090934402809343021092E7
:1011800046021092470210924802109249021092B1
:1011900083031092820310927903109278031092C5
:1011A0008E0310928F03109290031092910304E625
:1011B00010E010937F0300937E0382E090E0909311
:1011C00085038093840383E090E09093870380936A
:1011D0008603C4E0D0E0D0938903C093880385E000
:1011E00090E090938B0380938A0382E00E946F01CA
:1011F000809186030E946F01809188030E946F0195
:1012000080918A030E946F0110928D0310928C03CB
:10121000D0938103C09380031092690310926803F6
:1012200010925F0310925E03109274031092750384
:101230001092760310927703109365030093640372
:1012400088E090E090936B0380936A0389E090E0DC
:1012500090936D0380936C038AE090E090936F030A
:1012600080936E038BE090E0909371038093700302
:1012700088E00E946F0180916C030E946F01809151
:101280006E030E946F01809170030E946F011092A3
:10129000730310927203D0936703C0936603809127
:1012A0005A038033B8F491E0980F90935A038093D7
:1012B0005B0390E0FC01EE0FFF1FE80FF91FE65300
:1012C000FD4F88EB9BE092838183DF91CF911F914B
:1012D0000F9108958FEF80935B03F7CFCF93DF9348
:1012E000CDB7DEB762970FB6F894DEBF0FBECDBFA5
:1012F000789484B5826084BD84B5816084BD85B5F1
:10130000826085BD85B5816085BD80916E008160FC
:1013100080936E00109281008091810082608093A2
:1013200081008091810081608093810080918000A4
:101330008160809380008091B10084608093B100CF
:101340008091B00081608093B000809191008260B4
:1013500080939100809191008160809391008091B1
:1013600090008160809390008091A10082608093C2
:10137000A1008091A10081608093A1008091A000D4
:1013800081608093A000809121018260809321017F
:1013900080912101816080932101809120018160F1
:1013A0008093200180917A00846080937A008091FC
:1013B0007A00826080937A0080917A0081608093C5
:1013C0007A0080917A00806880937A001092C10040
:1013D000E0913D02F0913E0282E08083E09139028B
:1013E000F0913A021082E0913B02F0913C028FECC6
:1013F000808310924502E0914102F091420286E022
:101400008083E0913F02F09140028081806180837F
:10141000E0913F02F0914002808188608083E091FA
:101420003F02F0914002808180688083E0913F021A
:10143000F091400280818F7D808320917E033091E6
:101440007F03032E000C440B550BC12C17E8D12E43
:1014500013E9E12E13E0F12EC701B6010E94E50B5E
:101460000EE1802E912CA12CB12CCA01B901A5014D
:1014700094010E94E50B20937A0330937B03409301
:101480007C0350937D032091640330916503032E08
:10149000000C440B550BC701B6010E94E50BCA01B5
:1014A000B901A50194010E94E50B209360033093DC
:1014B0006103409362035093630380915B03803325
:1014C00008F051C086E00E946F0180915B03282FD5
:1014D00030E0F901EE0FFF1FE20FF31FE653FD4F5F
:1014E0009081907C9660908310925C0310925D03D3
:1014F0002CE0622F0E94480C829FB001112430E042
:1015000020E0AB01420F531FFA01EE0FFF1FE40F63
:10151000F51FE653FD4F908196FD17C02F5F3F4F9B
:101520002C30310571F7813009F09FC01092800096
:1015300082E0809381001092850010928400B19A1D
:1015400080916F00826080936F00E0915B038E2F2B
:1015500090E0FC01EE0FFF1FE80FF91FE653FD4F6F
:1015600080818064808388E192E0382E94E6292E81
:10157000632DCE010D960E94B6068D859E8500973F
:1015800009F49FC00E94A90B2B01B12CA12CA4141B
:10159000B5040CF0C9C0632DCE0107960E94B606B3
:1015A000632DCE0101960E94B6068F819885009723
:1015B00009F48BC00E94A90B8B0189819A81009745
:1015C00009F487C00E94A90B3B01C80165E070E0E7
:1015D0000E94540C7B012FEFE21AF20A8C01892B36
:1015E00011F405E010E02E9CB0012F9C700D112429
:1015F00088E793E00E94FD05209EB001219E700DBA
:1016000011248EE593E00E94FD0590E080E00E94A9
:101610008E01912C812C861497040CF05EC0D12C85
:10162000C12CC6010E948E016FE070E080E090E066
:101630000E941D043FEFC31AD30A4BE5C416D10420
:1016400081F78AE5C82ED12CC6010E948E016FE079
:1016500070E080E090E00E941D0481E0C81AD1088B
:1016600098F73FEF831A930AD6CF823061F4109235
:10167000900080939100109295001092940088BB86
:101680008093710062CF833069F41092A00082E0F1
:101690008093A1001092A5001092A40089BB8093B2
:1016A000720053CF811151CF1092200182E08093BC
:1016B000210110922501109224018ABB80937300AE
:1016C00044CF60E070E0CB015FCF60E070E0CB0121
:1016D00073CF60E070E0CB0177CF4CE99701420314
:1016E000B001439F700D112488E793E00E94FD052F
:1016F0002CE92003B001219F700D11248EE593E0A9
:101700000E94FD0564E670E080E090E00E941D0408
:10171000CE0101960E948606CE0107960E9486069B
:101720003FEFA31AB30A33CF45E050E06AE172E01D
:101730008DE292E00E94F80168EE73E080E090E0B4
:101740000E941D04CE010D960E9486060E943B0356
:101750000FCF1F93FC0199278827BC01E8941191B2
:101760001032E9F3193010F01E30C8F31B3251F07B
:101770001D3249F4689406C00E94D00B610F711DA0
:10178000811D911D119110531A30B0F33EF49095C4
:101790008095709561957F4F8F4F9F4F1F91089552
:1017A000592F482F372F262F660F771F881F991F15
:1017B000660F771F881F991F620F731F841F951F65
:1017C000660F771F881F991F0895052E97FB1EF43B
:1017D00000940E94FC0B57FD07D00E94170C07FCD9
:1017E00003D04EF40C94FC0B509540953095219508
:1017F0003F4F4F4F5F4F089590958095709561953D
:101800007F4F8F4F9F4F08950E94390CA59F900DD9
:10181000B49F900DA49F800D911D11240895B7FFD2
:101820000C94040C0E94040C821B930B0895A1E2FB
:101830001A2EAA1BBB1BFD010DC0AA1FBB1FEE1F4A
:10184000FF1FA217B307E407F50720F0A21BB30B95
:10185000E40BF50B661F771F881F991F1A9469F711
:1018600060957095809590959B01AC01BD01CF016D
:101870000895A29FB001B39FC001A39F700D811D69
:101880001124911DB29F700D811D1124911D089589
:10189000991B79E004C0991F961708F0961B881FC2
:1018A0007A95C9F78095089597FB072E16F4009452
:1018B00007D077FD09D00E94700C07FC05D03EF4DC
:1018C000909581959F4F0895709561957F4F0895EC
:1018D000EE0FFF1F881F8BBF0790F691E02D199424
:1018E000AA1BBB1B51E107C0AA1FBB1FA617B70746
:1018F00010F0A61BB70B881F991F5A95A9F7809562
:101900009095BC01CD0108950F931F93CF93DF9362
:101910008230910510F482E090E0E0919403F09120
:10192000950330E020E0B0E0A0E0309799F4211575
:10193000310509F44AC0281B390B24303105D8F58C
:101940008A819B816115710589F1FB0193838283F3
:10195000FE0111C04081518102811381481759074E
:10196000E0F04817590799F4109761F012960C931C
:10197000129713961C933296CF01DF91CF911F914E
:101980000F9108950093940310939503F4CF2115BC
:10199000310551F04217530738F0A901DB019A01D4
:1019A000BD01DF01F801C1CFEF01F9CF909395039D
:1019B00080939403CDCFFE01E20FF31F81939193A7
:1019C0002250310939832883D7CF20919203309157
:1019D0009303232B41F420910202309103023093B0
:1019E000930320939203209100023091010221156C
:1019F000310541F42DB73EB74091040250910502E4
:101A0000241B350BE0919203F0919303E217F30747
:101A1000A0F42E1B3F0B2817390778F0AC014E5F5E
:101A20005F4F2417350748F04E0F5F1F5093930305
:101A300040939203819391939FCFF0E0E0E09CCF9D
:101A4000CF93DF930097E9F0FC0132971382128263
:101A5000A0919403B0919503ED0130E020E0109740
:101A6000A1F420813181820F931F20919203309144
:101A700093032817390709F061C0F0939303E093AB
:101A80009203DF91CF910895EA01CE17DF07E8F5C1
:101A90004A815B819E0141155105B1F7E901FB8344
:101AA000EA8349915991C40FD51FEC17FD0761F4E2
:101AB000808191810296840F951FE9019983888323
:101AC000828193819B838A83F0E0E0E012968D917E
:101AD0009C9113970097B9F52D913C911197CD01E9
:101AE0000296820F931F209192033091930328173F
:101AF000390739F6309751F51092950310929403F7
:101B0000B0939303A0939203BCCFD383C28340814D
:101B10005181840F951FC817D90761F44E5F5F4F3D
:101B200088819981480F591F518340838A819B8105
:101B3000938382832115310509F0B0CFF09395038B
:101B4000E09394039ECFFD01DC01C0CF138212828B
:101B5000D7CF4F925F926F927F928F929F92AF9268
:101B6000BF92CF92DF92EF92FF920F931F93CF938A
:101B7000DF938C01009799F4CB01DF91CF911F91F6
:101B80000F91FF90EF90DF90CF90BF90AF909F901C
:101B90008F907F906F905F904F900C94840CFC011D
:101BA000E60FF71F9C0122503109E217F30708F4F2
:101BB000AEC0D901CD91DC911197C617D70720F19E
:101BC000C530D10578F0CE0104978617970750F0FD
:101BD000C61BD70B2297C193D1936D937C93CF01F2
:101BE0000E94200DC801DF91CF911F910F91FF90AE
:101BF000EF90DF90CF90BF90AF909F908F907F90AD
:101C00006F905F904F9008955B01AC1ABD0A4C0134
:101C10008C0E9D1EA0919403B0919503512C412CE4
:101C2000F12CE12C109731F5809192039091930360
:101C30008815990509F05CC04616570608F058C08B
:101C40008091000290910102009741F48DB79EB7F8
:101C50004091040250910502841B950BE817F90787
:101C600008F055C0F0939303E0939203F901718358
:101C70006083B8CF8D919C91119712966C901297BA
:101C800013967C901397A815B90559F56C0142E09D
:101C9000C40ED11CCA14DB0420F1AC014A195B0943
:101CA000DA011296159780F0628273825183408325
:101CB000D9016D937C93E114F10471F0D70113966F
:101CC000FC93EE9312978ECF22968C0F9D1FF901F5
:101CD00091838083F301EFCFF0939503E093940316
:101CE00081CF4816590608F42C017D01D3019ACF03
:101CF000CB010E94840C7C01009749F0AE01B80131
:101D00000E948A0EC8010E94200D87016BCF10E04F
:101D100000E068CFFB01DC0102C001900D92415050
:101D20005040D8F70895FB01DC0101900D9200208E
:081D3000E1F70895F894FFCFDC
:101D380000009603800000000000CE02F801250292
:101D48001B039602340288022D00686F6F726100CF
:00000001FF
